{
  "_format": "hh-sol-artifact-1",
  "contractName": "FluidPass",
  "sourceName": "contracts/FluidPass.sol",
  "abi": [
    {
      "inputs": [],
      "stateMutability": "nonpayable",
      "type": "constructor"
    },
    {
      "anonymous": false,
      "inputs": [
        {
          "indexed": false,
          "internalType": "uint256",
          "name": "totalFunds",
          "type": "uint256"
        }
      ],
      "name": "EventEnded",
      "type": "event"
    },
    {
      "anonymous": false,
      "inputs": [
        {
          "indexed": true,
          "internalType": "address",
          "name": "addr",
          "type": "address"
        },
        {
          "indexed": false,
          "internalType": "string",
          "name": "eventName",
          "type": "string"
        },
        {
          "indexed": false,
          "internalType": "uint256",
          "name": "bookingId",
          "type": "uint256"
        }
      ],
      "name": "JoinedEvent",
      "type": "event"
    },
    {
      "inputs": [
        {
          "internalType": "bytes",
          "name": "",
          "type": "bytes"
        }
      ],
      "name": "Events",
      "outputs": [
        {
          "internalType": "address",
          "name": "organizer",
          "type": "address"
        },
        {
          "internalType": "uint256",
          "name": "pricePerTicket",
          "type": "uint256"
        },
        {
          "internalType": "uint256",
          "name": "totalTicketBooked",
          "type": "uint256"
        },
        {
          "internalType": "uint256",
          "name": "totalTickets",
          "type": "uint256"
        },
        {
          "internalType": "uint256",
          "name": "endTime",
          "type": "uint256"
        }
      ],
      "stateMutability": "view",
      "type": "function"
    },
    {
      "inputs": [
        {
          "internalType": "address",
          "name": "_organizer",
          "type": "address"
        }
      ],
      "name": "addOrganizer",
      "outputs": [],
      "stateMutability": "nonpayable",
      "type": "function"
    },
    {
      "inputs": [
        {
          "internalType": "string",
          "name": "_eventName",
          "type": "string"
        },
        {
          "internalType": "uint256",
          "name": "_endTime",
          "type": "uint256"
        },
        {
          "internalType": "uint256",
          "name": "_pricePerTicket",
          "type": "uint256"
        },
        {
          "internalType": "uint256",
          "name": "_totalTickets",
          "type": "uint256"
        }
      ],
      "name": "createEvent",
      "outputs": [],
      "stateMutability": "nonpayable",
      "type": "function"
    },
    {
      "inputs": [
        {
          "internalType": "string",
          "name": "_eventName",
          "type": "string"
        }
      ],
      "name": "getEventDetails",
      "outputs": [
        {
          "components": [
            {
              "internalType": "address",
              "name": "organizer",
              "type": "address"
            },
            {
              "internalType": "uint256",
              "name": "pricePerTicket",
              "type": "uint256"
            },
            {
              "internalType": "uint256",
              "name": "totalTicketBooked",
              "type": "uint256"
            },
            {
              "internalType": "uint256",
              "name": "totalTickets",
              "type": "uint256"
            },
            {
              "internalType": "uint256",
              "name": "endTime",
              "type": "uint256"
            },
            {
              "internalType": "address[]",
              "name": "users",
              "type": "address[]"
            }
          ],
          "internalType": "struct FluidPass.Event",
          "name": "",
          "type": "tuple"
        }
      ],
      "stateMutability": "view",
      "type": "function"
    },
    {
      "inputs": [
        {
          "internalType": "address",
          "name": "",
          "type": "address"
        }
      ],
      "name": "isOrganizer",
      "outputs": [
        {
          "internalType": "bool",
          "name": "",
          "type": "bool"
        }
      ],
      "stateMutability": "view",
      "type": "function"
    },
    {
      "inputs": [
        {
          "internalType": "string",
          "name": "_eventName",
          "type": "string"
        }
      ],
      "name": "joinEvent",
      "outputs": [],
      "stateMutability": "nonpayable",
      "type": "function"
    },
    {
      "inputs": [
        {
          "internalType": "string",
          "name": "_eventName",
          "type": "string"
        }
      ],
      "name": "leaveEvent",
      "outputs": [],
      "stateMutability": "nonpayable",
      "type": "function"
    },
    {
      "inputs": [],
      "name": "owner",
      "outputs": [
        {
          "internalType": "address",
          "name": "",
          "type": "address"
        }
      ],
      "stateMutability": "view",
      "type": "function"
    },
    {
      "inputs": [
        {
          "internalType": "bytes",
          "name": "",
          "type": "bytes"
        },
        {
          "internalType": "address",
          "name": "",
          "type": "address"
        }
      ],
      "name": "timeSpentByUser",
      "outputs": [
        {
          "internalType": "uint256",
          "name": "",
          "type": "uint256"
        }
      ],
      "stateMutability": "view",
      "type": "function"
    },
    {
      "inputs": [
        {
          "internalType": "uint256",
          "name": "_amount",
          "type": "uint256"
        }
      ],
      "name": "unWrapTofDAI",
      "outputs": [],
      "stateMutability": "nonpayable",
      "type": "function"
    },
    {
      "inputs": [
        {
          "internalType": "bytes",
          "name": "",
          "type": "bytes"
        },
        {
          "internalType": "address",
          "name": "",
          "type": "address"
        }
      ],
      "name": "userBookingId",
      "outputs": [
        {
          "internalType": "uint256",
          "name": "",
          "type": "uint256"
        }
      ],
      "stateMutability": "view",
      "type": "function"
    },
    {
      "inputs": [
        {
          "internalType": "string",
          "name": "_eventName",
          "type": "string"
        }
      ],
      "name": "withdrawFunds",
      "outputs": [],
      "stateMutability": "nonpayable",
      "type": "function"
    },
    {
      "inputs": [
        {
          "internalType": "address",
          "name": "receiverAddress",
          "type": "address"
        },
        {
          "internalType": "uint256",
          "name": "_amount",
          "type": "uint256"
        }
      ],
      "name": "wrapTofDAIx",
      "outputs": [],
      "stateMutability": "nonpayable",
      "type": "function"
    }
  ],
  "bytecode": "0x6080604052735d8b4c2554aeb7e86f387b4d6c00ac33499ed01f600160006101000a81548173ffffffffffffffffffffffffffffffffffffffff021916908373ffffffffffffffffffffffffffffffffffffffff16021790555034801561006557600080fd5b5033600660006101000a81548173ffffffffffffffffffffffffffffffffffffffff021916908373ffffffffffffffffffffffffffffffffffffffff1602179055506137bf806100b66000396000f3fe608060405234801561001057600080fd5b50600436106100cf5760003560e01c80635069da261161008c578063a9397bc811610066578063a9397bc814610226578063d85322e714610256578063d9d4f4ab14610272578063e4725f021461028e576100cf565b80635069da26146101a45780638da5cb5b146101d4578063a79fa5df146101f2576100cf565b80630374ab0b146100d457806303b86b5a146100f05780630dc7e6341461010c578063372526f61461013c5780633c39c1f61461015857806341676f1514610174575b600080fd5b6100ee60048036038101906100e99190612389565b6102aa565b005b61010a60048036038101906101059190612411565b6104ca565b005b610126600480360381019061012191906125fd565b6108e0565b6040516101339190612668565b60405180910390f35b61015660048036038101906101519190612411565b61091b565b005b610172600480360381019061016d9190612411565b610d57565b005b61018e60048036038101906101899190612683565b6110e1565b60405161019b91906126cb565b60405180910390f35b6101be60048036038101906101b99190612411565b611101565b6040516101cb919061283c565b60405180910390f35b6101dc611248565b6040516101e9919061286d565b60405180910390f35b61020c60048036038101906102079190612888565b61126e565b60405161021d9594939291906128d1565b60405180910390f35b610240600480360381019061023b91906125fd565b6112da565b60405161024d9190612668565b60405180910390f35b610270600480360381019061026b9190612924565b611315565b005b61028c60048036038101906102879190612951565b611576565b005b6102a860048036038101906102a39190612683565b61193b565b005b600360003373ffffffffffffffffffffffffffffffffffffffff1673ffffffffffffffffffffffffffffffffffffffff16815260200190815260200160002060009054906101000a900460ff16610336576040517f08c379a000000000000000000000000000000000000000000000000000000000815260040161032d90612a14565b60405180910390fd5b6000858590501161037c576040517f08c379a000000000000000000000000000000000000000000000000000000000815260040161037390612a80565b60405180910390fd5b6040518060c001604052803373ffffffffffffffffffffffffffffffffffffffff1681526020018381526020016000815260200182815260200184426103c29190612acf565b8152602001600067ffffffffffffffff8111156103e2576103e1612474565b5b6040519080825280602002602001820160405280156104105781602001602082028036833780820191505090505b5081525060028686604051610426929190612b55565b908152602001604051809103902060008201518160000160006101000a81548173ffffffffffffffffffffffffffffffffffffffff021916908373ffffffffffffffffffffffffffffffffffffffff1602179055506020820151816001015560408201518160020155606082015181600301556080820151816004015560a08201518160050190805190602001906104bf9291906121e7565b509050505050505050565b600360003373ffffffffffffffffffffffffffffffffffffffff1673ffffffffffffffffffffffffffffffffffffffff16815260200190815260200160002060009054906101000a900460ff16610556576040517f08c379a000000000000000000000000000000000000000000000000000000000815260040161054d90612a14565b60405180910390fd5b60028282604051610568929190612b55565b90815260200160405180910390206004015442116105bb576040517f08c379a00000000000000000000000000000000000000000000000000000000081526004016105b290612bba565b60405180910390fd5b3373ffffffffffffffffffffffffffffffffffffffff16600283836040516105e4929190612b55565b908152602001604051809103902060000160009054906101000a900473ffffffffffffffffffffffffffffffffffffffff1673ffffffffffffffffffffffffffffffffffffffff161461066c576040517f08c379a000000000000000000000000000000000000000000000000000000000815260040161066390612c26565b60405180910390fd5b600082829050116106b2576040517f08c379a00000000000000000000000000000000000000000000000000000000081526004016106a990612a80565b60405180910390fd5b6000805b600284846040516106c8929190612b55565b908152602001604051809103902060050180549050811015610839576000600285856040516106f8929190612b55565b9081526020016040518091039020600501828154811061071b5761071a612c46565b5b9060005260206000200160009054906101000a900473ffffffffffffffffffffffffffffffffffffffff16905060006005868660405161075c929190612b55565b908152602001604051809103902060008373ffffffffffffffffffffffffffffffffffffffff1673ffffffffffffffffffffffffffffffffffffffff1681526020019081526020016000205490506000600287876040516107be929190612b55565b90815260200160405180910390206001015490506000600288886040516107e6929190612b55565b9081526020016040518091039020600401549050600081836108089190612ca4565b905080846108169190612cd5565b876108219190612acf565b965050505050508061083290612d2f565b90506106b6565b50600160009054906101000a900473ffffffffffffffffffffffffffffffffffffffff1673ffffffffffffffffffffffffffffffffffffffff1663a9059cbb33836040518363ffffffff1660e01b8152600401610897929190612d77565b6020604051808303816000875af11580156108b6573d6000803e3d6000fd5b505050506040513d601f19601f820116820180604052508101906108da9190612dcc565b50505050565b600582805160208101820180518482526020830160208501208183528095505050505050602052806000526040600020600091509150505481565b60008282905011610961576040517f08c379a000000000000000000000000000000000000000000000000000000000815260040161095890612a80565b60405180910390fd5b600060048383604051610975929190612b55565b908152602001604051809103902060003373ffffffffffffffffffffffffffffffffffffffff1673ffffffffffffffffffffffffffffffffffffffff1681526020019081526020016000205411610a01576040517f08c379a00000000000000000000000000000000000000000000000000000000081526004016109f890612e45565b60405180910390fd5b60007fffffffffffffffffffffffffffffffffffffffffffffffffffffffffffffffff905060005b60028484604051610a3b929190612b55565b908152602001604051809103902060050180549050811015610b02573373ffffffffffffffffffffffffffffffffffffffff1660028585604051610a80929190612b55565b90815260200160405180910390206005018281548110610aa357610aa2612c46565b5b9060005260206000200160009054906101000a900473ffffffffffffffffffffffffffffffffffffffff1673ffffffffffffffffffffffffffffffffffffffff1603610af157809150610b02565b80610afb90612d2f565b9050610a29565b5060028383604051610b15929190612b55565b9081526020016040518091039020600501805490508110610b6b576040517f08c379a0000000000000000000000000000000000000000000000000000000008152600401610b6290612eb1565b60405180910390fd5b600060028484604051610b7f929190612b55565b9081526020016040518091039020600501600160028686604051610ba4929190612b55565b908152602001604051809103902060050180549050610bc39190612ed1565b81548110610bd457610bd3612c46565b5b9060005260206000200160009054906101000a900473ffffffffffffffffffffffffffffffffffffffff1690508060028585604051610c14929190612b55565b90815260200160405180910390206005018381548110610c3757610c36612c46565b5b9060005260206000200160006101000a81548173ffffffffffffffffffffffffffffffffffffffff021916908373ffffffffffffffffffffffffffffffffffffffff16021790555060028484604051610c91929190612b55565b9081526020016040518091039020600501805480610cb257610cb1612f05565b5b6001900381819060005260206000200160006101000a81549073ffffffffffffffffffffffffffffffffffffffff021916905590554260058585604051610cfa929190612b55565b908152602001604051809103902060003373ffffffffffffffffffffffffffffffffffffffff1673ffffffffffffffffffffffffffffffffffffffff16815260200190815260200160002081905550610d51611b22565b50505050565b60008282905011610d9d576040517f08c379a0000000000000000000000000000000000000000000000000000000008152600401610d9490612a80565b60405180910390fd5b60028282604051610daf929190612b55565b90815260200160405180910390206003015460028383604051610dd3929190612b55565b9081526020016040518091039020600201541115610e26576040517f08c379a0000000000000000000000000000000000000000000000000000000008152600401610e1d90612f80565b60405180910390fd5b4260028383604051610e39929190612b55565b90815260200160405180910390206004015411610e8b576040517f08c379a0000000000000000000000000000000000000000000000000000000008152600401610e8290612fec565b60405180910390fd5b610eb83360028484604051610ea1929190612b55565b908152602001604051809103902060010154611576565b600160028383604051610ecc929190612b55565b90815260200160405180910390206002016000828254610eec9190612acf565b9250508190555060028282604051610f05929190612b55565b9081526020016040518091039020600501339080600181540180825580915050600190039060005260206000200160009091909190916101000a81548173ffffffffffffffffffffffffffffffffffffffff021916908373ffffffffffffffffffffffffffffffffffffffff16021790555060028282604051610f89929190612b55565b90815260200160405180910390206002015460048383604051610fad929190612b55565b908152602001604051809103902060003373ffffffffffffffffffffffffffffffffffffffff1673ffffffffffffffffffffffffffffffffffffffff16815260200190815260200160002081905550600060028383604051611010929190612b55565b9081526020016040518091039020600101549050600060028484604051611038929190612b55565b90815260200160405180910390206004015490506000818361105a9190612ca4565b90503373ffffffffffffffffffffffffffffffffffffffff167f88a9aa89382ae77c5bbc654cfe46ce68b157c2a0ee2c905cb58d8cc458be39a28686600289896040516110a8929190612b55565b9081526020016040518091039020600201546040516110c993929190613039565b60405180910390a26110da81611b72565b5050505050565b60036020528060005260406000206000915054906101000a900460ff1681565b611109612271565b6002838360405161111b929190612b55565b90815260200160405180910390206040518060c00160405290816000820160009054906101000a900473ffffffffffffffffffffffffffffffffffffffff1673ffffffffffffffffffffffffffffffffffffffff1673ffffffffffffffffffffffffffffffffffffffff168152602001600182015481526020016002820154815260200160038201548152602001600482015481526020016005820180548060200260200160405190810160405280929190818152602001828054801561123757602002820191906000526020600020905b8160009054906101000a900473ffffffffffffffffffffffffffffffffffffffff1673ffffffffffffffffffffffffffffffffffffffff16815260200190600101908083116111ed575b505050505081525050905092915050565b600660009054906101000a900473ffffffffffffffffffffffffffffffffffffffff1681565b6002818051602081018201805184825260208301602085012081835280955050505050506000915090508060000160009054906101000a900473ffffffffffffffffffffffffffffffffffffffff16908060010154908060020154908060030154908060040154905085565b600482805160208101820180518482526020830160208501208183528095505050505050602052806000526040600020600091509150505481565b600160009054906101000a900473ffffffffffffffffffffffffffffffffffffffff1673ffffffffffffffffffffffffffffffffffffffff166311bcc81e826040518263ffffffff1660e01b81526004016113709190612668565b600060405180830381600087803b15801561138a57600080fd5b505af115801561139e573d6000803e3d6000fd5b505050506000600160009054906101000a900473ffffffffffffffffffffffffffffffffffffffff1673ffffffffffffffffffffffffffffffffffffffff1663ee719bc86040518163ffffffff1660e01b8152600401602060405180830381865afa158015611411573d6000803e3d6000fd5b505050506040513d601f19601f820116820180604052508101906114359190613080565b9050818173ffffffffffffffffffffffffffffffffffffffff166370a08231306040518263ffffffff1660e01b8152600401611471919061286d565b602060405180830381865afa15801561148e573d6000803e3d6000fd5b505050506040513d601f19601f820116820180604052508101906114b291906130c2565b10156114f3576040517f08c379a00000000000000000000000000000000000000000000000000000000081526004016114ea9061313b565b60405180910390fd5b8073ffffffffffffffffffffffffffffffffffffffff1663a9059cbb33846040518363ffffffff1660e01b815260040161152e929190612d77565b6020604051808303816000875af115801561154d573d6000803e3d6000fd5b505050506040513d601f19601f820116820180604052508101906115719190612dcc565b505050565b6000600160009054906101000a900473ffffffffffffffffffffffffffffffffffffffff1673ffffffffffffffffffffffffffffffffffffffff1663ee719bc86040518163ffffffff1660e01b8152600401602060405180830381865afa1580156115e5573d6000803e3d6000fd5b505050506040513d601f19601f820116820180604052508101906116099190613080565b9050818173ffffffffffffffffffffffffffffffffffffffff166370a08231336040518263ffffffff1660e01b8152600401611645919061286d565b602060405180830381865afa158015611662573d6000803e3d6000fd5b505050506040513d601f19601f8201168201806040525081019061168691906130c2565b10156116c7576040517f08c379a00000000000000000000000000000000000000000000000000000000081526004016116be9061313b565b60405180910390fd5b818173ffffffffffffffffffffffffffffffffffffffff1663dd62ed3e33306040518363ffffffff1660e01b815260040161170392919061315b565b602060405180830381865afa158015611720573d6000803e3d6000fd5b505050506040513d601f19601f8201168201806040525081019061174491906130c2565b1015611785576040517f08c379a000000000000000000000000000000000000000000000000000000000815260040161177c906131d0565b60405180910390fd5b8073ffffffffffffffffffffffffffffffffffffffff166323b872dd3330856040518463ffffffff1660e01b81526004016117c2939291906131f0565b6020604051808303816000875af11580156117e1573d6000803e3d6000fd5b505050506040513d601f19601f820116820180604052508101906118059190612dcc565b508073ffffffffffffffffffffffffffffffffffffffff1663095ea7b3600160009054906101000a900473ffffffffffffffffffffffffffffffffffffffff16846040518363ffffffff1660e01b8152600401611863929190612d77565b6020604051808303816000875af1158015611882573d6000803e3d6000fd5b505050506040513d601f19601f820116820180604052508101906118a69190612dcc565b50600160009054906101000a900473ffffffffffffffffffffffffffffffffffffffff1673ffffffffffffffffffffffffffffffffffffffff16635b9d09cc84846040518363ffffffff1660e01b8152600401611904929190613284565b600060405180830381600087803b15801561191e57600080fd5b505af1158015611932573d6000803e3d6000fd5b50505050505050565b600660009054906101000a900473ffffffffffffffffffffffffffffffffffffffff1673ffffffffffffffffffffffffffffffffffffffff163373ffffffffffffffffffffffffffffffffffffffff16146119cb576040517f08c379a00000000000000000000000000000000000000000000000000000000081526004016119c29061330c565b60405180910390fd5b600073ffffffffffffffffffffffffffffffffffffffff168173ffffffffffffffffffffffffffffffffffffffff1603611a3a576040517f08c379a0000000000000000000000000000000000000000000000000000000008152600401611a3190613378565b60405180910390fd5b600360008273ffffffffffffffffffffffffffffffffffffffff1673ffffffffffffffffffffffffffffffffffffffff16815260200190815260200160002060009054906101000a900460ff1615611ac7576040517f08c379a0000000000000000000000000000000000000000000000000000000008152600401611abe906133e4565b60405180910390fd5b6001600360008373ffffffffffffffffffffffffffffffffffffffff1673ffffffffffffffffffffffffffffffffffffffff16815260200190815260200160002060006101000a81548160ff02191690831515021790555050565b611b6f3330600160009054906101000a900473ffffffffffffffffffffffffffffffffffffffff1673ffffffffffffffffffffffffffffffffffffffff16611bc59092919063ffffffff16565b50565b611bc1333083600160009054906101000a900473ffffffffffffffffffffffffffffffffffffffff1673ffffffffffffffffffffffffffffffffffffffff16611c29909392919063ffffffff16565b5050565b6000611c20848484600067ffffffffffffffff811115611be857611be7612474565b5b6040519080825280601f01601f191660200182016040528015611c1a5781602001600182028036833780820191505090505b50611c8f565b90509392505050565b6000611c8585858585600067ffffffffffffffff811115611c4d57611c4c612474565b5b6040519080825280601f01601f191660200182016040528015611c7f5781602001600182028036833780820191505090505b50611df6565b9050949350505050565b6000806000611c9d87611f60565b915091508173ffffffffffffffffffffffffffffffffffffffff166339255d5b828373ffffffffffffffffffffffffffffffffffffffff1663b4b333c68b8b8b600067ffffffffffffffff811115611cf857611cf7612474565b5b6040519080825280601f01601f191660200182016040528015611d2a5781602001600182028036833780820191505090505b50604051602401611d3e94939291906134da565b604051602081830303815290604052915060e01b6020820180517bffffffffffffffffffffffffffffffffffffffffffffffffffffffff8381831617835250505050876040518463ffffffff1660e01b8152600401611d9f93929190613547565b6000604051808303816000875af1158015611dbe573d6000803e3d6000fd5b505050506040513d6000823e3d601f19601f82011682018060405250810190611de791906135fc565b50600192505050949350505050565b6000806000611e0488611f60565b915091508173ffffffffffffffffffffffffffffffffffffffff166339255d5b828373ffffffffffffffffffffffffffffffffffffffff166394229ecb8c8c8c8c600067ffffffffffffffff811115611e6057611e5f612474565b5b6040519080825280601f01601f191660200182016040528015611e925781602001600182028036833780820191505090505b50604051602401611ea7959493929190613661565b604051602081830303815290604052915060e01b6020820180517bffffffffffffffffffffffffffffffffffffffffffffffffffffffff8381831617835250505050876040518463ffffffff1660e01b8152600401611f0893929190613547565b6000604051808303816000875af1158015611f27573d6000803e3d6000fd5b505050506040513d6000823e3d601f19601f82011682018060405250810190611f5091906135fc565b5060019250505095945050505050565b6000807f65599bf746e17a00ea62e3610586992d88101b78eec3cf380706621fb97ea8375491507fb969d79d88acd02d04ed7ee7d43b949e7daf093d363abcfbbc43dfdfd1ce969a549050600073ffffffffffffffffffffffffffffffffffffffff168173ffffffffffffffffffffffffffffffffffffffff160361216857600073ffffffffffffffffffffffffffffffffffffffff168273ffffffffffffffffffffffffffffffffffffffff1603612085578273ffffffffffffffffffffffffffffffffffffffff166320bc44256040518163ffffffff1660e01b8152600401602060405180830381865afa15801561205e573d6000803e3d6000fd5b505050506040513d601f19601f820116820180604052508101906120829190613080565b91505b8173ffffffffffffffffffffffffffffffffffffffff1663b6d200de7fa9214cc96615e0085d3bb077758db69497dc2dce3b2b1e97bc93c3d18d83efd36040518263ffffffff1660e01b81526004016120de91906136d4565b602060405180830381865afa1580156120fb573d6000803e3d6000fd5b505050506040513d601f19601f8201168201806040525081019061211f919061372d565b9050817f65599bf746e17a00ea62e3610586992d88101b78eec3cf380706621fb97ea83755807fb969d79d88acd02d04ed7ee7d43b949e7daf093d363abcfbbc43dfdfd1ce969a555b600073ffffffffffffffffffffffffffffffffffffffff168273ffffffffffffffffffffffffffffffffffffffff16036121a5576121a461375a565b5b600073ffffffffffffffffffffffffffffffffffffffff168173ffffffffffffffffffffffffffffffffffffffff16036121e2576121e161375a565b5b915091565b828054828255906000526020600020908101928215612260579160200282015b8281111561225f5782518260006101000a81548173ffffffffffffffffffffffffffffffffffffffff021916908373ffffffffffffffffffffffffffffffffffffffff16021790555091602001919060010190612207565b5b50905061226d91906122bd565b5090565b6040518060c00160405280600073ffffffffffffffffffffffffffffffffffffffff16815260200160008152602001600081526020016000815260200160008152602001606081525090565b5b808211156122d65760008160009055506001016122be565b5090565b6000604051905090565b600080fd5b600080fd5b600080fd5b600080fd5b600080fd5b60008083601f840112612313576123126122ee565b5b8235905067ffffffffffffffff8111156123305761232f6122f3565b5b60208301915083600182028301111561234c5761234b6122f8565b5b9250929050565b6000819050919050565b61236681612353565b811461237157600080fd5b50565b6000813590506123838161235d565b92915050565b6000806000806000608086880312156123a5576123a46122e4565b5b600086013567ffffffffffffffff8111156123c3576123c26122e9565b5b6123cf888289016122fd565b955095505060206123e288828901612374565b93505060406123f388828901612374565b925050606061240488828901612374565b9150509295509295909350565b60008060208385031215612428576124276122e4565b5b600083013567ffffffffffffffff811115612446576124456122e9565b5b612452858286016122fd565b92509250509250929050565b600080fd5b6000601f19601f8301169050919050565b7f4e487b7100000000000000000000000000000000000000000000000000000000600052604160045260246000fd5b6124ac82612463565b810181811067ffffffffffffffff821117156124cb576124ca612474565b5b80604052505050565b60006124de6122da565b90506124ea82826124a3565b919050565b600067ffffffffffffffff82111561250a57612509612474565b5b61251382612463565b9050602081019050919050565b82818337600083830152505050565b600061254261253d846124ef565b6124d4565b90508281526020810184848401111561255e5761255d61245e565b5b612569848285612520565b509392505050565b600082601f830112612586576125856122ee565b5b813561259684826020860161252f565b91505092915050565b600073ffffffffffffffffffffffffffffffffffffffff82169050919050565b60006125ca8261259f565b9050919050565b6125da816125bf565b81146125e557600080fd5b50565b6000813590506125f7816125d1565b92915050565b60008060408385031215612614576126136122e4565b5b600083013567ffffffffffffffff811115612632576126316122e9565b5b61263e85828601612571565b925050602061264f858286016125e8565b9150509250929050565b61266281612353565b82525050565b600060208201905061267d6000830184612659565b92915050565b600060208284031215612699576126986122e4565b5b60006126a7848285016125e8565b91505092915050565b60008115159050919050565b6126c5816126b0565b82525050565b60006020820190506126e060008301846126bc565b92915050565b6126ef816125bf565b82525050565b6126fe81612353565b82525050565b600081519050919050565b600082825260208201905092915050565b6000819050602082019050919050565b600061273c83836126e6565b60208301905092915050565b6000602082019050919050565b600061276082612704565b61276a818561270f565b935061277583612720565b8060005b838110156127a657815161278d8882612730565b975061279883612748565b925050600181019050612779565b5085935050505092915050565b600060c0830160008301516127cb60008601826126e6565b5060208301516127de60208601826126f5565b5060408301516127f160408601826126f5565b50606083015161280460608601826126f5565b50608083015161281760808601826126f5565b5060a083015184820360a086015261282f8282612755565b9150508091505092915050565b6000602082019050818103600083015261285681846127b3565b905092915050565b612867816125bf565b82525050565b6000602082019050612882600083018461285e565b92915050565b60006020828403121561289e5761289d6122e4565b5b600082013567ffffffffffffffff8111156128bc576128bb6122e9565b5b6128c884828501612571565b91505092915050565b600060a0820190506128e6600083018861285e565b6128f36020830187612659565b6129006040830186612659565b61290d6060830185612659565b61291a6080830184612659565b9695505050505050565b60006020828403121561293a576129396122e4565b5b600061294884828501612374565b91505092915050565b60008060408385031215612968576129676122e4565b5b6000612976858286016125e8565b925050602061298785828601612374565b9150509250929050565b600082825260208201905092915050565b7f4f6e6c79206576656e74206f7267616e697a65722063616e2063616c6c20746860008201527f6973000000000000000000000000000000000000000000000000000000000000602082015250565b60006129fe602283612991565b9150612a09826129a2565b604082019050919050565b60006020820190508181036000830152612a2d816129f1565b9050919050565b7f496e76616c696420696e70757400000000000000000000000000000000000000600082015250565b6000612a6a600d83612991565b9150612a7582612a34565b602082019050919050565b60006020820190508181036000830152612a9981612a5d565b9050919050565b7f4e487b7100000000000000000000000000000000000000000000000000000000600052601160045260246000fd5b6000612ada82612353565b9150612ae583612353565b9250827fffffffffffffffffffffffffffffffffffffffffffffffffffffffffffffffff03821115612b1a57612b19612aa0565b5b828201905092915050565b600081905092915050565b6000612b3c8385612b25565b9350612b49838584612520565b82840190509392505050565b6000612b62828486612b30565b91508190509392505050565b7f4576656e74206e6f7420656e6465640000000000000000000000000000000000600082015250565b6000612ba4600f83612991565b9150612baf82612b6e565b602082019050919050565b60006020820190508181036000830152612bd381612b97565b9050919050565b7f4e6f7420746865206f7267616e697a6572000000000000000000000000000000600082015250565b6000612c10601183612991565b9150612c1b82612bda565b602082019050919050565b60006020820190508181036000830152612c3f81612c03565b9050919050565b7f4e487b7100000000000000000000000000000000000000000000000000000000600052603260045260246000fd5b7f4e487b7100000000000000000000000000000000000000000000000000000000600052601260045260246000fd5b6000612caf82612353565b9150612cba83612353565b925082612cca57612cc9612c75565b5b828204905092915050565b6000612ce082612353565b9150612ceb83612353565b9250817fffffffffffffffffffffffffffffffffffffffffffffffffffffffffffffffff0483118215151615612d2457612d23612aa0565b5b828202905092915050565b6000612d3a82612353565b91507fffffffffffffffffffffffffffffffffffffffffffffffffffffffffffffffff8203612d6c57612d6b612aa0565b5b600182019050919050565b6000604082019050612d8c600083018561285e565b612d996020830184612659565b9392505050565b612da9816126b0565b8114612db457600080fd5b50565b600081519050612dc681612da0565b92915050565b600060208284031215612de257612de16122e4565b5b6000612df084828501612db7565b91505092915050565b7f4e6f74204a6f696e656400000000000000000000000000000000000000000000600082015250565b6000612e2f600a83612991565b9150612e3a82612df9565b602082019050919050565b60006020820190508181036000830152612e5e81612e22565b9050919050565b7f55736572206e6f7420666f756e6420696e20746865206576656e740000000000600082015250565b6000612e9b601b83612991565b9150612ea682612e65565b602082019050919050565b60006020820190508181036000830152612eca81612e8e565b9050919050565b6000612edc82612353565b9150612ee783612353565b925082821015612efa57612ef9612aa0565b5b828203905092915050565b7f4e487b7100000000000000000000000000000000000000000000000000000000600052603160045260246000fd5b7f4e6f205469636b65747320417661696c61626c65000000000000000000000000600082015250565b6000612f6a601483612991565b9150612f7582612f34565b602082019050919050565b60006020820190508181036000830152612f9981612f5d565b9050919050565b7f4576656e7420656e646564210000000000000000000000000000000000000000600082015250565b6000612fd6600c83612991565b9150612fe182612fa0565b602082019050919050565b6000602082019050818103600083015261300581612fc9565b9050919050565b60006130188385612991565b9350613025838584612520565b61302e83612463565b840190509392505050565b6000604082019050818103600083015261305481858761300c565b90506130636020830184612659565b949350505050565b60008151905061307a816125d1565b92915050565b600060208284031215613096576130956122e4565b5b60006130a48482850161306b565b91505092915050565b6000815190506130bc8161235d565b92915050565b6000602082840312156130d8576130d76122e4565b5b60006130e6848285016130ad565b91505092915050565b7f496e73756666696369656e742062616c616e6365000000000000000000000000600082015250565b6000613125601483612991565b9150613130826130ef565b602082019050919050565b6000602082019050818103600083015261315481613118565b9050919050565b6000604082019050613170600083018561285e565b61317d602083018461285e565b9392505050565b7f496e73756666696369656e7420616c6c6f77616e636500000000000000000000600082015250565b60006131ba601683612991565b91506131c582613184565b602082019050919050565b600060208201905081810360008301526131e9816131ad565b9050919050565b6000606082019050613205600083018661285e565b613212602083018561285e565b61321f6040830184612659565b949350505050565b600082825260208201905092915050565b7f3078000000000000000000000000000000000000000000000000000000000000600082015250565b600061326e600283613227565b915061327982613238565b602082019050919050565b6000606082019050613299600083018561285e565b6132a66020830184612659565b81810360408301526132b781613261565b90509392505050565b7f4f6e6c79206f776e657221000000000000000000000000000000000000000000600082015250565b60006132f6600b83612991565b9150613301826132c0565b602082019050919050565b60006020820190508181036000830152613325816132e9565b9050919050565b7f496e76616c696420616464726573730000000000000000000000000000000000600082015250565b6000613362600f83612991565b915061336d8261332c565b602082019050919050565b6000602082019050818103600083015261339181613355565b9050919050565b7f416c726561647920616e206f7267616e697a6572000000000000000000000000600082015250565b60006133ce601483612991565b91506133d982613398565b602082019050919050565b600060208201905081810360008301526133fd816133c1565b9050919050565b6000819050919050565b600061342961342461341f8461259f565b613404565b61259f565b9050919050565b600061343b8261340e565b9050919050565b600061344d82613430565b9050919050565b61345d81613442565b82525050565b600081519050919050565b60005b8381101561348c578082015181840152602081019050613471565b8381111561349b576000848401525b50505050565b60006134ac82613463565b6134b68185613227565b93506134c681856020860161346e565b6134cf81612463565b840191505092915050565b60006080820190506134ef6000830187613454565b6134fc602083018661285e565b613509604083018561285e565b818103606083015261351b81846134a1565b905095945050505050565b600061353182613430565b9050919050565b61354181613526565b82525050565b600060608201905061355c6000830186613538565b818103602083015261356e81856134a1565b9050818103604083015261358281846134a1565b9050949350505050565b600061359f61359a846124ef565b6124d4565b9050828152602081018484840111156135bb576135ba61245e565b5b6135c684828561346e565b509392505050565b600082601f8301126135e3576135e26122ee565b5b81516135f384826020860161358c565b91505092915050565b600060208284031215613612576136116122e4565b5b600082015167ffffffffffffffff8111156136305761362f6122e9565b5b61363c848285016135ce565b91505092915050565b600081600b0b9050919050565b61365b81613645565b82525050565b600060a0820190506136766000830188613454565b613683602083018761285e565b613690604083018661285e565b61369d6060830185613652565b81810360808301526136af81846134a1565b90509695505050505050565b6000819050919050565b6136ce816136bb565b82525050565b60006020820190506136e960008301846136c5565b92915050565b60006136fa826125bf565b9050919050565b61370a816136ef565b811461371557600080fd5b50565b60008151905061372781613701565b92915050565b600060208284031215613743576137426122e4565b5b600061375184828501613718565b91505092915050565b7f4e487b7100000000000000000000000000000000000000000000000000000000600052600160045260246000fdfea2646970667358221220c003e7876c6afd9a4449314e3f5d165de994b34e3fc3564ab4ff5ac42670b14064736f6c634300080e0033",
  "linkReferences": {},
  "deployedLinkReferences": {}
}