{
  "_format": "hh-sol-artifact-1",
  "contractName": "MoneyRouter",
  "sourceName": "contracts/MoneyRouter.sol",
  "abi": [
    {
      "inputs": [
        {
          "internalType": "address",
          "name": "_owner",
          "type": "address"
        }
      ],
      "stateMutability": "nonpayable",
      "type": "constructor"
    },
    {
      "inputs": [],
      "name": "Unauthorized",
      "type": "error"
    },
    {
      "inputs": [
        {
          "internalType": "address",
          "name": "",
          "type": "address"
        }
      ],
      "name": "accountList",
      "outputs": [
        {
          "internalType": "bool",
          "name": "",
          "type": "bool"
        }
      ],
      "stateMutability": "view",
      "type": "function"
    },
    {
      "inputs": [
        {
          "internalType": "address",
          "name": "_account",
          "type": "address"
        }
      ],
      "name": "allowAccount",
      "outputs": [],
      "stateMutability": "nonpayable",
      "type": "function"
    },
    {
      "inputs": [
        {
          "internalType": "address",
          "name": "_newOwner",
          "type": "address"
        }
      ],
      "name": "changeOwner",
      "outputs": [],
      "stateMutability": "nonpayable",
      "type": "function"
    },
    {
      "inputs": [
        {
          "internalType": "contract ISuperToken",
          "name": "token",
          "type": "address"
        },
        {
          "internalType": "address",
          "name": "receiver",
          "type": "address"
        },
        {
          "internalType": "int96",
          "name": "flowRate",
          "type": "int96"
        }
      ],
      "name": "createFlowFromContract",
      "outputs": [],
      "stateMutability": "nonpayable",
      "type": "function"
    },
    {
      "inputs": [
        {
          "internalType": "contract ISuperToken",
          "name": "token",
          "type": "address"
        },
        {
          "internalType": "int96",
          "name": "flowRate",
          "type": "int96"
        }
      ],
      "name": "createFlowIntoContract",
      "outputs": [],
      "stateMutability": "nonpayable",
      "type": "function"
    },
    {
      "inputs": [
        {
          "internalType": "contract ISuperToken",
          "name": "token",
          "type": "address"
        },
        {
          "internalType": "address",
          "name": "receiver",
          "type": "address"
        }
      ],
      "name": "deleteFlowFromContract",
      "outputs": [],
      "stateMutability": "nonpayable",
      "type": "function"
    },
    {
      "inputs": [
        {
          "internalType": "contract ISuperToken",
          "name": "token",
          "type": "address"
        }
      ],
      "name": "deleteFlowIntoContract",
      "outputs": [],
      "stateMutability": "nonpayable",
      "type": "function"
    },
    {
      "inputs": [],
      "name": "owner",
      "outputs": [
        {
          "internalType": "address",
          "name": "",
          "type": "address"
        }
      ],
      "stateMutability": "view",
      "type": "function"
    },
    {
      "inputs": [
        {
          "internalType": "address",
          "name": "_account",
          "type": "address"
        }
      ],
      "name": "removeAccount",
      "outputs": [],
      "stateMutability": "nonpayable",
      "type": "function"
    },
    {
      "inputs": [
        {
          "internalType": "contract ISuperToken",
          "name": "token",
          "type": "address"
        },
        {
          "internalType": "uint256",
          "name": "amount",
          "type": "uint256"
        }
      ],
      "name": "sendLumpSumToContract",
      "outputs": [],
      "stateMutability": "nonpayable",
      "type": "function"
    },
    {
      "inputs": [
        {
          "internalType": "contract ISuperToken",
          "name": "token",
          "type": "address"
        },
        {
          "internalType": "address",
          "name": "receiver",
          "type": "address"
        },
        {
          "internalType": "int96",
          "name": "flowRate",
          "type": "int96"
        }
      ],
      "name": "updateFlowFromContract",
      "outputs": [],
      "stateMutability": "nonpayable",
      "type": "function"
    },
    {
      "inputs": [
        {
          "internalType": "contract ISuperToken",
          "name": "token",
          "type": "address"
        },
        {
          "internalType": "int96",
          "name": "flowRate",
          "type": "int96"
        }
      ],
      "name": "updateFlowIntoContract",
      "outputs": [],
      "stateMutability": "nonpayable",
      "type": "function"
    },
    {
      "inputs": [
        {
          "internalType": "contract ISuperToken",
          "name": "token",
          "type": "address"
        },
        {
          "internalType": "uint256",
          "name": "amount",
          "type": "uint256"
        }
      ],
      "name": "withdrawFunds",
      "outputs": [],
      "stateMutability": "nonpayable",
      "type": "function"
    }
  ],
  "bytecode": "0x60806040523480156200001157600080fd5b50604051620023b0380380620023b08339818101604052810190620000379190620000e8565b806000806101000a81548173ffffffffffffffffffffffffffffffffffffffff021916908373ffffffffffffffffffffffffffffffffffffffff160217905550506200011a565b600080fd5b600073ffffffffffffffffffffffffffffffffffffffff82169050919050565b6000620000b08262000083565b9050919050565b620000c281620000a3565b8114620000ce57600080fd5b50565b600081519050620000e281620000b7565b92915050565b6000602082840312156200010157620001006200007e565b5b60006200011184828501620000d1565b91505092915050565b612286806200012a6000396000f3fe608060405234801561001057600080fd5b50600436106100cf5760003560e01c8063a5510b321161008c578063c107532911610066578063c1075329146101d2578063c2f7c654146101ee578063c4740a951461020a578063d3a07fcd14610226576100cf565b8063a5510b321461017e578063a6f9dae11461019a578063b9f7b12b146101b6576100cf565b8063097e69ef146100d45780631acc948c146100f057806326ff92e41461010c5780632fca9249146101285780636715e19f146101445780638da5cb5b14610160575b600080fd5b6100ee60048036038101906100e99190611aa7565b610256565b005b61010a60048036038101906101059190611afa565b610364565b005b61012660048036038101906101219190611b5d565b610443565b005b610142600480360381019061013d9190611b9d565b6105a5565b005b61015e60048036038101906101599190611bdd565b6106b4565b005b6101686107c0565b6040516101759190611c19565b60405180910390f35b61019860048036038101906101939190611b9d565b6107e4565b005b6101b460048036038101906101af9190611afa565b6108f3565b005b6101d060048036038101906101cb9190611aa7565b6109bb565b005b6101ec60048036038101906101e79190611b5d565b610ac9565b005b61020860048036038101906102039190611c34565b610c29565b005b610224600480360381019061021f9190611afa565b610d36565b005b610240600480360381019061023b9190611afa565b610e16565b60405161024d9190611c8f565b60405180910390f35b600160003373ffffffffffffffffffffffffffffffffffffffff1673ffffffffffffffffffffffffffffffffffffffff16815260200190815260200160002060009054906101000a900460ff161580156102fc575060008054906101000a900473ffffffffffffffffffffffffffffffffffffffff1673ffffffffffffffffffffffffffffffffffffffff163373ffffffffffffffffffffffffffffffffffffffff1614155b15610333576040517f82b4290000000000000000000000000000000000000000000000000000000000815260040160405180910390fd5b61035e82828573ffffffffffffffffffffffffffffffffffffffff16610e369092919063ffffffff16565b50505050565b60008054906101000a900473ffffffffffffffffffffffffffffffffffffffff1673ffffffffffffffffffffffffffffffffffffffff163373ffffffffffffffffffffffffffffffffffffffff16146103e9576040517f82b4290000000000000000000000000000000000000000000000000000000000815260040160405180910390fd5b60018060008373ffffffffffffffffffffffffffffffffffffffff1673ffffffffffffffffffffffffffffffffffffffff16815260200190815260200160002060006101000a81548160ff02191690831515021790555050565b600160003373ffffffffffffffffffffffffffffffffffffffff1673ffffffffffffffffffffffffffffffffffffffff16815260200190815260200160002060009054906101000a900460ff161580156104e9575060008054906101000a900473ffffffffffffffffffffffffffffffffffffffff1673ffffffffffffffffffffffffffffffffffffffff163373ffffffffffffffffffffffffffffffffffffffff1614155b15610520576040517f82b4290000000000000000000000000000000000000000000000000000000000815260040160405180910390fd5b8173ffffffffffffffffffffffffffffffffffffffff166323b872dd3330846040518463ffffffff1660e01b815260040161055d93929190611cb9565b6020604051808303816000875af115801561057c573d6000803e3d6000fd5b505050506040513d601f19601f820116820180604052508101906105a09190611d1c565b505050565b600160003373ffffffffffffffffffffffffffffffffffffffff1673ffffffffffffffffffffffffffffffffffffffff16815260200190815260200160002060009054906101000a900460ff1615801561064b575060008054906101000a900473ffffffffffffffffffffffffffffffffffffffff1673ffffffffffffffffffffffffffffffffffffffff163373ffffffffffffffffffffffffffffffffffffffff1614155b15610682576040517f82b4290000000000000000000000000000000000000000000000000000000000815260040160405180910390fd5b6106af3330838573ffffffffffffffffffffffffffffffffffffffff16610e9a909392919063ffffffff16565b505050565b600160003373ffffffffffffffffffffffffffffffffffffffff1673ffffffffffffffffffffffffffffffffffffffff16815260200190815260200160002060009054906101000a900460ff1615801561075a575060008054906101000a900473ffffffffffffffffffffffffffffffffffffffff1673ffffffffffffffffffffffffffffffffffffffff163373ffffffffffffffffffffffffffffffffffffffff1614155b15610791576040517f82b4290000000000000000000000000000000000000000000000000000000000815260040160405180910390fd5b6107bc33308373ffffffffffffffffffffffffffffffffffffffff16610f009092919063ffffffff16565b5050565b60008054906101000a900473ffffffffffffffffffffffffffffffffffffffff1681565b600160003373ffffffffffffffffffffffffffffffffffffffff1673ffffffffffffffffffffffffffffffffffffffff16815260200190815260200160002060009054906101000a900460ff1615801561088a575060008054906101000a900473ffffffffffffffffffffffffffffffffffffffff1673ffffffffffffffffffffffffffffffffffffffff163373ffffffffffffffffffffffffffffffffffffffff1614155b156108c1576040517f82b4290000000000000000000000000000000000000000000000000000000000815260040160405180910390fd5b6108ee3330838573ffffffffffffffffffffffffffffffffffffffff16610f64909392919063ffffffff16565b505050565b60008054906101000a900473ffffffffffffffffffffffffffffffffffffffff1673ffffffffffffffffffffffffffffffffffffffff163373ffffffffffffffffffffffffffffffffffffffff1614610978576040517f82b4290000000000000000000000000000000000000000000000000000000000815260040160405180910390fd5b806000806101000a81548173ffffffffffffffffffffffffffffffffffffffff021916908373ffffffffffffffffffffffffffffffffffffffff16021790555050565b600160003373ffffffffffffffffffffffffffffffffffffffff1673ffffffffffffffffffffffffffffffffffffffff16815260200190815260200160002060009054906101000a900460ff16158015610a61575060008054906101000a900473ffffffffffffffffffffffffffffffffffffffff1673ffffffffffffffffffffffffffffffffffffffff163373ffffffffffffffffffffffffffffffffffffffff1614155b15610a98576040517f82b4290000000000000000000000000000000000000000000000000000000000815260040160405180910390fd5b610ac382828573ffffffffffffffffffffffffffffffffffffffff16610fca9092919063ffffffff16565b50505050565b600160003373ffffffffffffffffffffffffffffffffffffffff1673ffffffffffffffffffffffffffffffffffffffff16815260200190815260200160002060009054906101000a900460ff16158015610b6f575060008054906101000a900473ffffffffffffffffffffffffffffffffffffffff1673ffffffffffffffffffffffffffffffffffffffff163373ffffffffffffffffffffffffffffffffffffffff1614155b15610ba6576040517f82b4290000000000000000000000000000000000000000000000000000000000815260040160405180910390fd5b8173ffffffffffffffffffffffffffffffffffffffff1663a9059cbb33836040518363ffffffff1660e01b8152600401610be1929190611d49565b6020604051808303816000875af1158015610c00573d6000803e3d6000fd5b505050506040513d601f19601f82011682018060405250810190610c249190611d1c565b505050565b600160003373ffffffffffffffffffffffffffffffffffffffff1673ffffffffffffffffffffffffffffffffffffffff16815260200190815260200160002060009054906101000a900460ff16158015610ccf575060008054906101000a900473ffffffffffffffffffffffffffffffffffffffff1673ffffffffffffffffffffffffffffffffffffffff163373ffffffffffffffffffffffffffffffffffffffff1614155b15610d06576040517f82b4290000000000000000000000000000000000000000000000000000000000815260040160405180910390fd5b610d3130828473ffffffffffffffffffffffffffffffffffffffff16610f009092919063ffffffff16565b505050565b60008054906101000a900473ffffffffffffffffffffffffffffffffffffffff1673ffffffffffffffffffffffffffffffffffffffff163373ffffffffffffffffffffffffffffffffffffffff1614610dbb576040517f82b4290000000000000000000000000000000000000000000000000000000000815260040160405180910390fd5b6000600160008373ffffffffffffffffffffffffffffffffffffffff1673ffffffffffffffffffffffffffffffffffffffff16815260200190815260200160002060006101000a81548160ff02191690831515021790555050565b60016020528060005260406000206000915054906101000a900460ff1681565b6000610e91848484600067ffffffffffffffff811115610e5957610e58611d72565b5b6040519080825280601f01601f191660200182016040528015610e8b5781602001600182028036833780820191505090505b5061102e565b90509392505050565b6000610ef685858585600067ffffffffffffffff811115610ebe57610ebd611d72565b5b6040519080825280601f01601f191660200182016040528015610ef05781602001600182028036833780820191505090505b50611195565b9050949350505050565b6000610f5b848484600067ffffffffffffffff811115610f2357610f22611d72565b5b6040519080825280601f01601f191660200182016040528015610f555781602001600182028036833780820191505090505b506112ff565b90509392505050565b6000610fc085858585600067ffffffffffffffff811115610f8857610f87611d72565b5b6040519080825280601f01601f191660200182016040528015610fba5781602001600182028036833780820191505090505b50611466565b9050949350505050565b6000611025848484600067ffffffffffffffff811115610fed57610fec611d72565b5b6040519080825280601f01601f19166020018201604052801561101f5781602001600182028036833780820191505090505b506115d0565b90509392505050565b600080600061103c87611737565b915091508173ffffffffffffffffffffffffffffffffffffffff166339255d5b828373ffffffffffffffffffffffffffffffffffffffff166350209a628b8b8b600067ffffffffffffffff81111561109757611096611d72565b5b6040519080825280601f01601f1916602001820160405280156110c95781602001600182028036833780820191505090505b506040516024016110dd9493929190611ea8565b604051602081830303815290604052915060e01b6020820180517bffffffffffffffffffffffffffffffffffffffffffffffffffffffff8381831617835250505050876040518463ffffffff1660e01b815260040161113e93929190611f15565b6000604051808303816000875af115801561115d573d6000803e3d6000fd5b505050506040513d6000823e3d601f19601f820116820180604052508101906111869190612051565b50600192505050949350505050565b60008060006111a388611737565b915091508173ffffffffffffffffffffffffffffffffffffffff166339255d5b828373ffffffffffffffffffffffffffffffffffffffff1663354b95908c8c8c8c600067ffffffffffffffff8111156111ff576111fe611d72565b5b6040519080825280601f01601f1916602001820160405280156112315781602001600182028036833780820191505090505b5060405160240161124695949392919061209a565b604051602081830303815290604052915060e01b6020820180517bffffffffffffffffffffffffffffffffffffffffffffffffffffffff8381831617835250505050876040518463ffffffff1660e01b81526004016112a793929190611f15565b6000604051808303816000875af11580156112c6573d6000803e3d6000fd5b505050506040513d6000823e3d601f19601f820116820180604052508101906112ef9190612051565b5060019250505095945050505050565b600080600061130d87611737565b915091508173ffffffffffffffffffffffffffffffffffffffff166339255d5b828373ffffffffffffffffffffffffffffffffffffffff1663b4b333c68b8b8b600067ffffffffffffffff81111561136857611367611d72565b5b6040519080825280601f01601f19166020018201604052801561139a5781602001600182028036833780820191505090505b506040516024016113ae94939291906120f4565b604051602081830303815290604052915060e01b6020820180517bffffffffffffffffffffffffffffffffffffffffffffffffffffffff8381831617835250505050876040518463ffffffff1660e01b815260040161140f93929190611f15565b6000604051808303816000875af115801561142e573d6000803e3d6000fd5b505050506040513d6000823e3d601f19601f820116820180604052508101906114579190612051565b50600192505050949350505050565b600080600061147488611737565b915091508173ffffffffffffffffffffffffffffffffffffffff166339255d5b828373ffffffffffffffffffffffffffffffffffffffff166394229ecb8c8c8c8c600067ffffffffffffffff8111156114d0576114cf611d72565b5b6040519080825280601f01601f1916602001820160405280156115025781602001600182028036833780820191505090505b5060405160240161151795949392919061209a565b604051602081830303815290604052915060e01b6020820180517bffffffffffffffffffffffffffffffffffffffffffffffffffffffff8381831617835250505050876040518463ffffffff1660e01b815260040161157893929190611f15565b6000604051808303816000875af1158015611597573d6000803e3d6000fd5b505050506040513d6000823e3d601f19601f820116820180604052508101906115c09190612051565b5060019250505095945050505050565b60008060006115de87611737565b915091508173ffffffffffffffffffffffffffffffffffffffff166339255d5b828373ffffffffffffffffffffffffffffffffffffffff166362fc305e8b8b8b600067ffffffffffffffff81111561163957611638611d72565b5b6040519080825280601f01601f19166020018201604052801561166b5781602001600182028036833780820191505090505b5060405160240161167f9493929190611ea8565b604051602081830303815290604052915060e01b6020820180517bffffffffffffffffffffffffffffffffffffffffffffffffffffffff8381831617835250505050876040518463ffffffff1660e01b81526004016116e093929190611f15565b6000604051808303816000875af11580156116ff573d6000803e3d6000fd5b505050506040513d6000823e3d601f19601f820116820180604052508101906117289190612051565b50600192505050949350505050565b6000807f65599bf746e17a00ea62e3610586992d88101b78eec3cf380706621fb97ea8375491507fb969d79d88acd02d04ed7ee7d43b949e7daf093d363abcfbbc43dfdfd1ce969a549050600073ffffffffffffffffffffffffffffffffffffffff168173ffffffffffffffffffffffffffffffffffffffff160361193f57600073ffffffffffffffffffffffffffffffffffffffff168273ffffffffffffffffffffffffffffffffffffffff160361185c578273ffffffffffffffffffffffffffffffffffffffff166320bc44256040518163ffffffff1660e01b8152600401602060405180830381865afa158015611835573d6000803e3d6000fd5b505050506040513d601f19601f820116820180604052508101906118599190612155565b91505b8173ffffffffffffffffffffffffffffffffffffffff1663b6d200de7fa9214cc96615e0085d3bb077758db69497dc2dce3b2b1e97bc93c3d18d83efd36040518263ffffffff1660e01b81526004016118b5919061219b565b602060405180830381865afa1580156118d2573d6000803e3d6000fd5b505050506040513d601f19601f820116820180604052508101906118f691906121f4565b9050817f65599bf746e17a00ea62e3610586992d88101b78eec3cf380706621fb97ea83755807fb969d79d88acd02d04ed7ee7d43b949e7daf093d363abcfbbc43dfdfd1ce969a555b600073ffffffffffffffffffffffffffffffffffffffff168273ffffffffffffffffffffffffffffffffffffffff160361197c5761197b612221565b5b600073ffffffffffffffffffffffffffffffffffffffff168173ffffffffffffffffffffffffffffffffffffffff16036119b9576119b8612221565b5b915091565b6000604051905090565b600080fd5b600080fd5b600073ffffffffffffffffffffffffffffffffffffffff82169050919050565b60006119fd826119d2565b9050919050565b6000611a0f826119f2565b9050919050565b611a1f81611a04565b8114611a2a57600080fd5b50565b600081359050611a3c81611a16565b92915050565b611a4b816119f2565b8114611a5657600080fd5b50565b600081359050611a6881611a42565b92915050565b600081600b0b9050919050565b611a8481611a6e565b8114611a8f57600080fd5b50565b600081359050611aa181611a7b565b92915050565b600080600060608486031215611ac057611abf6119c8565b5b6000611ace86828701611a2d565b9350506020611adf86828701611a59565b9250506040611af086828701611a92565b9150509250925092565b600060208284031215611b1057611b0f6119c8565b5b6000611b1e84828501611a59565b91505092915050565b6000819050919050565b611b3a81611b27565b8114611b4557600080fd5b50565b600081359050611b5781611b31565b92915050565b60008060408385031215611b7457611b736119c8565b5b6000611b8285828601611a2d565b9250506020611b9385828601611b48565b9150509250929050565b60008060408385031215611bb457611bb36119c8565b5b6000611bc285828601611a2d565b9250506020611bd385828601611a92565b9150509250929050565b600060208284031215611bf357611bf26119c8565b5b6000611c0184828501611a2d565b91505092915050565b611c13816119f2565b82525050565b6000602082019050611c2e6000830184611c0a565b92915050565b60008060408385031215611c4b57611c4a6119c8565b5b6000611c5985828601611a2d565b9250506020611c6a85828601611a59565b9150509250929050565b60008115159050919050565b611c8981611c74565b82525050565b6000602082019050611ca46000830184611c80565b92915050565b611cb381611b27565b82525050565b6000606082019050611cce6000830186611c0a565b611cdb6020830185611c0a565b611ce86040830184611caa565b949350505050565b611cf981611c74565b8114611d0457600080fd5b50565b600081519050611d1681611cf0565b92915050565b600060208284031215611d3257611d316119c8565b5b6000611d4084828501611d07565b91505092915050565b6000604082019050611d5e6000830185611c0a565b611d6b6020830184611caa565b9392505050565b7f4e487b7100000000000000000000000000000000000000000000000000000000600052604160045260246000fd5b6000819050919050565b6000611dc6611dc1611dbc846119d2565b611da1565b6119d2565b9050919050565b6000611dd882611dab565b9050919050565b6000611dea82611dcd565b9050919050565b611dfa81611ddf565b82525050565b611e0981611a6e565b82525050565b600081519050919050565b600082825260208201905092915050565b60005b83811015611e49578082015181840152602081019050611e2e565b83811115611e58576000848401525b50505050565b6000601f19601f8301169050919050565b6000611e7a82611e0f565b611e848185611e1a565b9350611e94818560208601611e2b565b611e9d81611e5e565b840191505092915050565b6000608082019050611ebd6000830187611df1565b611eca6020830186611c0a565b611ed76040830185611e00565b8181036060830152611ee98184611e6f565b905095945050505050565b6000611eff82611dcd565b9050919050565b611f0f81611ef4565b82525050565b6000606082019050611f2a6000830186611f06565b8181036020830152611f3c8185611e6f565b90508181036040830152611f508184611e6f565b9050949350505050565b600080fd5b600080fd5b611f6d82611e5e565b810181811067ffffffffffffffff82111715611f8c57611f8b611d72565b5b80604052505050565b6000611f9f6119be565b9050611fab8282611f64565b919050565b600067ffffffffffffffff821115611fcb57611fca611d72565b5b611fd482611e5e565b9050602081019050919050565b6000611ff4611fef84611fb0565b611f95565b9050828152602081018484840111156120105761200f611f5f565b5b61201b848285611e2b565b509392505050565b600082601f83011261203857612037611f5a565b5b8151612048848260208601611fe1565b91505092915050565b600060208284031215612067576120666119c8565b5b600082015167ffffffffffffffff811115612085576120846119cd565b5b61209184828501612023565b91505092915050565b600060a0820190506120af6000830188611df1565b6120bc6020830187611c0a565b6120c96040830186611c0a565b6120d66060830185611e00565b81810360808301526120e88184611e6f565b90509695505050505050565b60006080820190506121096000830187611df1565b6121166020830186611c0a565b6121236040830185611c0a565b81810360608301526121358184611e6f565b905095945050505050565b60008151905061214f81611a42565b92915050565b60006020828403121561216b5761216a6119c8565b5b600061217984828501612140565b91505092915050565b6000819050919050565b61219581612182565b82525050565b60006020820190506121b0600083018461218c565b92915050565b60006121c1826119f2565b9050919050565b6121d1816121b6565b81146121dc57600080fd5b50565b6000815190506121ee816121c8565b92915050565b60006020828403121561220a576122096119c8565b5b6000612218848285016121df565b91505092915050565b7f4e487b7100000000000000000000000000000000000000000000000000000000600052600160045260246000fdfea2646970667358221220a325c1546043ce44d97d1c7a551242c269e4c5e8c9937f0b308d7a05027a616864736f6c634300080e0033",
  "linkReferences": {},
  "deployedLinkReferences": {}
}